{
  "contractName": "BlindAuction",
  "abi": [
    {
      "anonymous": false,
      "inputs": [
        {
          "indexed": false,
          "internalType": "uint256",
          "name": "Auction_id",
          "type": "uint256"
        },
        {
          "indexed": false,
          "internalType": "address",
          "name": "highestBidder",
          "type": "address"
        },
        {
          "indexed": false,
          "internalType": "uint256",
          "name": "highestBid",
          "type": "uint256"
        }
      ],
      "name": "AuctionEnded",
      "type": "event"
    },
    {
      "anonymous": false,
      "inputs": [
        {
          "indexed": false,
          "internalType": "uint256",
          "name": "Auction_id",
          "type": "uint256"
        },
        {
          "indexed": false,
          "internalType": "string",
          "name": "item_name",
          "type": "string"
        },
        {
          "indexed": false,
          "internalType": "string",
          "name": "item_description",
          "type": "string"
        }
      ],
      "name": "AuctionStarted",
      "type": "event"
    },
    {
      "anonymous": false,
      "inputs": [
        {
          "indexed": false,
          "internalType": "uint256",
          "name": "auction_id",
          "type": "uint256"
        },
        {
          "indexed": false,
          "internalType": "address",
          "name": "bidder",
          "type": "address"
        },
        {
          "indexed": false,
          "internalType": "uint256",
          "name": "balance",
          "type": "uint256"
        }
      ],
      "name": "BalanceRefunded",
      "type": "event"
    },
    {
      "anonymous": false,
      "inputs": [
        {
          "indexed": false,
          "internalType": "address",
          "name": "bidder",
          "type": "address"
        }
      ],
      "name": "BidMade",
      "type": "event"
    },
    {
      "anonymous": false,
      "inputs": [
        {
          "indexed": false,
          "internalType": "uint256",
          "name": "Auction_id",
          "type": "uint256"
        },
        {
          "indexed": false,
          "internalType": "address",
          "name": "bidder",
          "type": "address"
        }
      ],
      "name": "BidRevealFailed",
      "type": "event"
    },
    {
      "anonymous": false,
      "inputs": [
        {
          "indexed": false,
          "internalType": "uint256",
          "name": "Auction_id",
          "type": "uint256"
        },
        {
          "indexed": false,
          "internalType": "address",
          "name": "bidder",
          "type": "address"
        }
      ],
      "name": "BidRevealed",
      "type": "event"
    },
    {
      "anonymous": false,
      "inputs": [
        {
          "indexed": false,
          "internalType": "uint256",
          "name": "auction_id",
          "type": "uint256"
        },
        {
          "indexed": false,
          "internalType": "address",
          "name": "bidder",
          "type": "address"
        },
        {
          "indexed": false,
          "internalType": "uint256",
          "name": "bid_value",
          "type": "uint256"
        }
      ],
      "name": "BidderRefunded",
      "type": "event"
    },
    {
      "anonymous": false,
      "inputs": [
        {
          "indexed": false,
          "internalType": "uint256",
          "name": "Auction_id",
          "type": "uint256"
        }
      ],
      "name": "BiddingPeriodEnded",
      "type": "event"
    },
    {
      "anonymous": false,
      "inputs": [
        {
          "indexed": false,
          "internalType": "uint256",
          "name": "Auction_id",
          "type": "uint256"
        },
        {
          "indexed": false,
          "internalType": "uint256",
          "name": "bidding_end",
          "type": "uint256"
        }
      ],
      "name": "BiddingStarted",
      "type": "event"
    },
    {
      "anonymous": false,
      "inputs": [
        {
          "indexed": false,
          "internalType": "uint256",
          "name": "auction_id",
          "type": "uint256"
        },
        {
          "indexed": false,
          "internalType": "address",
          "name": "bidder",
          "type": "address"
        }
      ],
      "name": "DepositNotEnough",
      "type": "event"
    },
    {
      "anonymous": false,
      "inputs": [
        {
          "indexed": false,
          "internalType": "uint256",
          "name": "auction_id",
          "type": "uint256"
        }
      ],
      "name": "ItemUnsold",
      "type": "event"
    },
    {
      "anonymous": false,
      "inputs": [
        {
          "indexed": false,
          "internalType": "uint256",
          "name": "auction_id",
          "type": "uint256"
        },
        {
          "indexed": false,
          "internalType": "address",
          "name": "bidder",
          "type": "address"
        },
        {
          "indexed": false,
          "internalType": "uint256",
          "name": "bid_value",
          "type": "uint256"
        }
      ],
      "name": "NewHighestBid",
      "type": "event"
    },
    {
      "anonymous": false,
      "inputs": [
        {
          "indexed": false,
          "internalType": "uint256",
          "name": "Auction_id",
          "type": "uint256"
        }
      ],
      "name": "RevealPeriodEnded",
      "type": "event"
    },
    {
      "anonymous": false,
      "inputs": [
        {
          "indexed": false,
          "internalType": "uint256",
          "name": "Auction_id",
          "type": "uint256"
        },
        {
          "indexed": false,
          "internalType": "uint256",
          "name": "reveal_end",
          "type": "uint256"
        }
      ],
      "name": "RevealPeriodStarted",
      "type": "event"
    },
    {
      "anonymous": false,
      "inputs": [
        {
          "indexed": false,
          "internalType": "uint256",
          "name": "Auction_id",
          "type": "uint256"
        },
        {
          "indexed": false,
          "internalType": "address",
          "name": "winner",
          "type": "address"
        },
        {
          "indexed": false,
          "internalType": "string",
          "name": "pubkey",
          "type": "string"
        },
        {
          "indexed": false,
          "internalType": "uint256",
          "name": "winningBid",
          "type": "uint256"
        }
      ],
      "name": "WinnerChosen",
      "type": "event"
    },
    {
      "anonymous": false,
      "inputs": [
        {
          "indexed": false,
          "internalType": "uint256",
          "name": "auction_id",
          "type": "uint256"
        }
      ],
      "name": "deliveryComplete",
      "type": "event"
    },
    {
      "anonymous": false,
      "inputs": [
        {
          "indexed": false,
          "internalType": "uint256",
          "name": "auction_id",
          "type": "uint256"
        },
        {
          "indexed": false,
          "internalType": "string",
          "name": "H",
          "type": "string"
        }
      ],
      "name": "encryptedKey",
      "type": "event"
    },
    {
      "constant": true,
      "inputs": [
        {
          "internalType": "address",
          "name": "account",
          "type": "address"
        }
      ],
      "name": "getAccountBalance",
      "outputs": [
        {
          "internalType": "uint256",
          "name": "accountBalance",
          "type": "uint256"
        }
      ],
      "payable": false,
      "stateMutability": "view",
      "type": "function"
    },
    {
      "constant": false,
      "inputs": [
        {
          "internalType": "string",
          "name": "item_name",
          "type": "string"
        },
        {
          "internalType": "string",
          "name": "item_description",
          "type": "string"
        },
        {
          "internalType": "uint256",
          "name": "bidding_time",
          "type": "uint256"
        },
        {
          "internalType": "uint256",
          "name": "reveal_time",
          "type": "uint256"
        }
      ],
      "name": "auctionItem",
      "outputs": [],
      "payable": true,
      "stateMutability": "payable",
      "type": "function"
    },
    {
      "constant": true,
      "inputs": [],
      "name": "getactiveauctions",
      "outputs": [
        {
          "components": [
            {
              "internalType": "uint256",
              "name": "auction_id",
              "type": "uint256"
            },
            {
              "internalType": "address payable",
              "name": "beneficiary",
              "type": "address"
            },
            {
              "internalType": "uint256",
              "name": "biddingEnd",
              "type": "uint256"
            },
            {
              "internalType": "uint256",
              "name": "revealEnd",
              "type": "uint256"
            },
            {
              "internalType": "bool",
              "name": "ended",
              "type": "bool"
            },
            {
              "internalType": "string",
              "name": "item_name",
              "type": "string"
            },
            {
              "internalType": "string",
              "name": "item_description",
              "type": "string"
            },
            {
              "internalType": "bool",
              "name": "bidplaced",
              "type": "bool"
            },
            {
              "internalType": "bool",
              "name": "revealed",
              "type": "bool"
            }
          ],
          "internalType": "struct BlindAuction.auction_active_listings[]",
          "name": "",
          "type": "tuple[]"
        }
      ],
      "payable": false,
      "stateMutability": "view",
      "type": "function"
    },
    {
      "constant": true,
      "inputs": [],
      "name": "getallauctions",
      "outputs": [
        {
          "components": [
            {
              "internalType": "uint256",
              "name": "auction_id",
              "type": "uint256"
            },
            {
              "internalType": "address payable",
              "name": "beneficiary",
              "type": "address"
            },
            {
              "internalType": "address payable",
              "name": "winner",
              "type": "address"
            },
            {
              "internalType": "uint256",
              "name": "biddingEnd",
              "type": "uint256"
            },
            {
              "internalType": "uint256",
              "name": "revealEnd",
              "type": "uint256"
            },
            {
              "internalType": "bool",
              "name": "ended",
              "type": "bool"
            },
            {
              "internalType": "bool",
              "name": "sold",
              "type": "bool"
            },
            {
              "internalType": "string",
              "name": "item_name",
              "type": "string"
            },
            {
              "internalType": "string",
              "name": "item_description",
              "type": "string"
            },
            {
              "internalType": "bool",
              "name": "bidplaced",
              "type": "bool"
            },
            {
              "internalType": "bool",
              "name": "revealed",
              "type": "bool"
            },
            {
              "internalType": "uint256",
              "name": "finalBid",
              "type": "uint256"
            },
            {
              "internalType": "string",
              "name": "pubkey",
              "type": "string"
            },
            {
              "internalType": "string",
              "name": "H",
              "type": "string"
            }
          ],
          "internalType": "struct BlindAuction.auction_all_listings[]",
          "name": "",
          "type": "tuple[]"
        }
      ],
      "payable": false,
      "stateMutability": "view",
      "type": "function"
    },
    {
      "constant": false,
      "inputs": [
        {
          "internalType": "bytes32",
          "name": "blindedBid",
          "type": "bytes32"
        },
        {
          "internalType": "uint256",
          "name": "auction_id",
          "type": "uint256"
        },
        {
          "internalType": "string",
          "name": "pubkey",
          "type": "string"
        }
      ],
      "name": "bid",
      "outputs": [],
      "payable": true,
      "stateMutability": "payable",
      "type": "function"
    },
    {
      "constant": false,
      "inputs": [
        {
          "internalType": "uint256",
          "name": "value",
          "type": "uint256"
        },
        {
          "internalType": "string",
          "name": "secret",
          "type": "string"
        },
        {
          "internalType": "uint256",
          "name": "auction_id",
          "type": "uint256"
        }
      ],
      "name": "reveal",
      "outputs": [],
      "payable": true,
      "stateMutability": "payable",
      "type": "function"
    },
    {
      "constant": false,
      "inputs": [
        {
          "internalType": "uint256",
          "name": "auction_id",
          "type": "uint256"
        }
      ],
      "name": "auctionEnd",
      "outputs": [],
      "payable": false,
      "stateMutability": "nonpayable",
      "type": "function"
    },
    {
      "constant": false,
      "inputs": [
        {
          "internalType": "uint256",
          "name": "auction_id",
          "type": "uint256"
        },
        {
          "internalType": "string",
          "name": "H",
          "type": "string"
        }
      ],
      "name": "sellItem",
      "outputs": [],
      "payable": true,
      "stateMutability": "payable",
      "type": "function"
    },
    {
      "constant": false,
      "inputs": [
        {
          "internalType": "uint256",
          "name": "auction_id",
          "type": "uint256"
        }
      ],
      "name": "confirmDelivery",
      "outputs": [],
      "payable": true,
      "stateMutability": "payable",
      "type": "function"
    }
  ],
  "bytecode": "0x60806040526000600155600060025534801561001a57600080fd5b506139198061002a6000396000f3fe6080604052600436106100865760003560e01c806393423e9c1161005957806393423e9c1461011757806396a18f8014610154578063b5e360371461017f578063e701cfc21461019b578063fd84cb97146101b757610086565b80630754aebb1461008b57806332246e9f146100b65780634f3ae594146100df57806384febc4b146100fb575b600080fd5b34801561009757600080fd5b506100a06101d3565b6040516100ad91906133ba565b60405180910390f35b3480156100c257600080fd5b506100dd60048036036100d89190810190612aa2565b610752565b005b6100f960048036036100f49190810190612b23565b610d10565b005b61011560048036036101109190810190612acb565b6111a7565b005b34801561012357600080fd5b5061013e60048036036101399190810190612972565b6113bc565b60405161014b919061353c565b60405180910390f35b34801561016057600080fd5b506101696113dd565b6040516101769190613398565b60405180910390f35b6101996004803603610194919081019061299b565b611720565b005b6101b560048036036101b09190810190612a07565b611a8f565b005b6101d160048036036101cc9190810190612aa2565b611e8f565b005b60608060015460405190808252806020026020018201604052801561021257816020015b6101ff6125ec565b8152602001906001900390816101f75790505b50905060008090505b60015481101561074a57600080600083815260200190815260200160002090506060604051806020016040528060008152509050600073ffffffffffffffffffffffffffffffffffffffff168260070160019054906101000a900473ffffffffffffffffffffffffffffffffffffffff1673ffffffffffffffffffffffffffffffffffffffff16146103a8578160110160008360070160019054906101000a900473ffffffffffffffffffffffffffffffffffffffff1673ffffffffffffffffffffffffffffffffffffffff1673ffffffffffffffffffffffffffffffffffffffff1681526020019081526020016000208054600181600116156101000203166002900480601f0160208091040260200160405190810160405280929190818152602001828054600181600116156101000203166002900480156103a05780601f10610375576101008083540402835291602001916103a0565b820191906000526020600020905b81548152906001019060200180831161038357829003601f168201915b505050505090505b604051806101c00160405280836000015481526020018360010160009054906101000a900473ffffffffffffffffffffffffffffffffffffffff1673ffffffffffffffffffffffffffffffffffffffff1681526020018360070160019054906101000a900473ffffffffffffffffffffffffffffffffffffffff1673ffffffffffffffffffffffffffffffffffffffff16815260200183600201548152602001836003015481526020018360040160009054906101000a900460ff16151581526020018360070160009054906101000a900460ff1615158152602001836005018054600181600116156101000203166002900480601f01602080910402602001604051908101604052809291908181526020018280546001816001161561010002031660029004801561051c5780601f106104f15761010080835404028352916020019161051c565b820191906000526020600020905b8154815290600101906020018083116104ff57829003601f168201915b50505050508152602001836006018054600181600116156101000203166002900480601f0160208091040260200160405190810160405280929190818152602001828054600181600116156101000203166002900480156105be5780601f10610593576101008083540402835291602001916105be565b820191906000526020600020905b8154815290600101906020018083116105a157829003601f168201915b5050505050815260200183600f0160003373ffffffffffffffffffffffffffffffffffffffff1673ffffffffffffffffffffffffffffffffffffffff16815260200190815260200160002060009054906101000a900460ff16151581526020018360100160003373ffffffffffffffffffffffffffffffffffffffff1673ffffffffffffffffffffffffffffffffffffffff16815260200190815260200160002060009054906101000a900460ff16151581526020018360080154815260200182815260200183600c018054600181600116156101000203166002900480601f01602080910402602001604051908101604052809291908181526020018280546001816001161561010002031660029004801561071c5780601f106106f15761010080835404028352916020019161071c565b820191906000526020600020905b8154815290600101906020018083116106ff57829003601f168201915b505050505081525084848151811061073057fe5b60200260200101819052505050808060010191505061021b565b508091505090565b600080828152602001908152602001600020600301548042116107aa576040517f08c379a00000000000000000000000000000000000000000000000000000000081526004016107a1906134dc565b60405180910390fd5b813373ffffffffffffffffffffffffffffffffffffffff1660008083815260200190815260200160002060010160009054906101000a900473ffffffffffffffffffffffffffffffffffffffff1673ffffffffffffffffffffffffffffffffffffffff161461084e576040517f08c379a00000000000000000000000000000000000000000000000000000000081526004016108459061345c565b60405180910390fd5b826000151560008083815260200190815260200160002060040160009054906101000a900460ff161515146108b8576040517f08c379a00000000000000000000000000000000000000000000000000000000081526004016108af9061341c565b60405180910390fd5b60008060008681526020019081526020016000206008015414801561093e5750600073ffffffffffffffffffffffffffffffffffffffff1660008086815260200190815260200160002060070160019054906101000a900473ffffffffffffffffffffffffffffffffffffffff1673ffffffffffffffffffffffffffffffffffffffff16145b156109fa577ff656db5d7eec16959704ab1442c4686390e8bdca6e2fd99d193f6871512359ea84604051610972919061353c565b60405180910390a17fd2aa34a4fdbbc6dff6a3e56f46e0f3ae2a31d7785ff3487aa5c95c642acea501846000806040516109ae93929190613580565b60405180910390a1600160008086815260200190815260200160002060040160006101000a81548160ff0219169083151502179055506001600260008282540392505081905550610d0a565b7fd2aa34a4fdbbc6dff6a3e56f46e0f3ae2a31d7785ff3487aa5c95c642acea5018460008087815260200190815260200160002060070160019054906101000a900473ffffffffffffffffffffffffffffffffffffffff1660008088815260200190815260200160002060080154604051610a7793929190613603565b60405180910390a1600160008086815260200190815260200160002060040160006101000a81548160ff021916908315150217905550600160026000828254039250508190555060008085815260200190815260200160002060070160019054906101000a900473ffffffffffffffffffffffffffffffffffffffff16600080868152602001908152602001600020600a0160006101000a81548173ffffffffffffffffffffffffffffffffffffffff021916908373ffffffffffffffffffffffffffffffffffffffff16021790555060008085815260200190815260200160002060080154600080868152602001908152602001600020600b018190555060008090505b60008086815260200190815260200160002060090180549050811015610bfb57610bf0856000808881526020019081526020016000206009018381548110610bc057fe5b9060005260206000200160009054906101000a900473ffffffffffffffffffffffffffffffffffffffff166121f6565b806001019050610b7c565b507f9fa608827c3c4a8327a334f831d3ac579446f5314638ac0108bbaa17441e16a484600080878152602001908152602001600020600a0160009054906101000a900473ffffffffffffffffffffffffffffffffffffffff1660008088815260200190815260200160002060110160008060008a8152602001908152602001600020600a0160009054906101000a900473ffffffffffffffffffffffffffffffffffffffff1673ffffffffffffffffffffffffffffffffffffffff1673ffffffffffffffffffffffffffffffffffffffff168152602001908152602001600020600080898152602001908152602001600020600b0154604051610d0194939291906135b7565b60405180910390a15b50505050565b60008082815260200190815260200160002060020154804211610d68576040517f08c379a0000000000000000000000000000000000000000000000000000000008152600401610d5f906134dc565b60405180910390fd5b60008083815260200190815260200160002060030154804210610dc0576040517f08c379a0000000000000000000000000000000000000000000000000000000008152600401610db79061347c565b60405180910390fd5b8260011515600080838152602001908152602001600020600f0160003373ffffffffffffffffffffffffffffffffffffffff1673ffffffffffffffffffffffffffffffffffffffff16815260200190815260200160002060009054906101000a900460ff16151514610e67576040517f08c379a0000000000000000000000000000000000000000000000000000000008152600401610e5e9061349c565b60405180910390fd5b836001548110610eac576040517f08c379a0000000000000000000000000000000000000000000000000000000008152600401610ea39061343c565b60405180910390fd5b600080905060008090506000806000898152602001908152602001600020600d0160003373ffffffffffffffffffffffffffffffffffffffff1673ffffffffffffffffffffffffffffffffffffffff16815260200190815260200160002090508a8a8a604051602001610f219392919061363a565b60405160208183030381529060405280519060200120816000015414610f7f577fad8c260aa7a48094cdeb8c07f33bcf4e3bb56893286c330706ca376c728e9f3e8833604051610f72929190613557565b60405180910390a161119a565b6000801b81600001819055506000808981526020019081526020016000206009013390806001815401808255809150509060018203906000526020600020016000909192909190916101000a81548173ffffffffffffffffffffffffffffffffffffffff021916908373ffffffffffffffffffffffffffffffffffffffff1602179055505060016000808a815260200190815260200160002060100160003373ffffffffffffffffffffffffffffffffffffffff1673ffffffffffffffffffffffffffffffffffffffff16815260200190815260200160002060006101000a81548160ff0219169083151502179055508060010154830192508a6002028160010154106110dd5761109188338d6123f9565b1561109f578a600202830392505b7fcb1784faad642d48c787676118783766577faa10d9c69eb1fbb40c3baaac87d188336040516110d0929190613557565b60405180910390a1611117565b7f2aef0deb49f8c134c725c0d4075973ab3c581f0d16cce112ab4ed4b26b9ddaa3883360405161110e929190613557565b60405180910390a15b7f0ce627ddf6b4fdb8de00ae62e2f2b8dee6a4226b75fccd3d6692329c8e0d2c1c88338560405161114a93929190613603565b60405180910390a13373ffffffffffffffffffffffffffffffffffffffff166108fc849081150290604051600060405180830381858888f19350505050158015611198573d6000803e3d6000fd5b505b5050505050505050505050565b8260015481106111ec576040517f08c379a00000000000000000000000000000000000000000000000000000000081526004016111e39061343c565b60405180910390fd5b836001151560008083815260200190815260200160002060040160009054906101000a900460ff16151514611256576040517f08c379a000000000000000000000000000000000000000000000000000000000815260040161124d906133fc565b60405180910390fd5b843373ffffffffffffffffffffffffffffffffffffffff1660008083815260200190815260200160002060010160009054906101000a900473ffffffffffffffffffffffffffffffffffffffff1673ffffffffffffffffffffffffffffffffffffffff16146112fa576040517f08c379a00000000000000000000000000000000000000000000000000000000081526004016112f19061345c565b60405180910390fd5b600080878152602001908152602001600020600b01546002023414611354576040517f08c379a000000000000000000000000000000000000000000000000000000000815260040161134b906133dc565b60405180910390fd5b8484600080898152602001908152602001600020600c01919061137892919061268f565b507f45bd963234a41bc8d75b2e2caf57f0987f5d405e1d4bbf09b919faeff927937c8686866040516113ac9392919061363a565b60405180910390a1505050505050565b60008173ffffffffffffffffffffffffffffffffffffffff16319050919050565b60606000809050606060025460405190808252806020026020018201604052801561142257816020015b61140f61270f565b8152602001906001900390816114075790505b50905060008090505b600154811015611717576000151560008083815260200190815260200160002060040160009054906101000a900460ff161515141561170a5760008060008381526020019081526020016000209050604051806101200160405280826000015481526020018260010160009054906101000a900473ffffffffffffffffffffffffffffffffffffffff1673ffffffffffffffffffffffffffffffffffffffff16815260200182600201548152602001826003015481526020018260040160009054906101000a900460ff1615158152602001826005018054600181600116156101000203166002900480601f0160208091040260200160405190810160405280929190818152602001828054600181600116156101000203166002900480156115955780601f1061156a57610100808354040283529160200191611595565b820191906000526020600020905b81548152906001019060200180831161157857829003601f168201915b50505050508152602001826006018054600181600116156101000203166002900480601f0160208091040260200160405190810160405280929190818152602001828054600181600116156101000203166002900480156116375780601f1061160c57610100808354040283529160200191611637565b820191906000526020600020905b81548152906001019060200180831161161a57829003601f168201915b5050505050815260200182600f0160003373ffffffffffffffffffffffffffffffffffffffff1673ffffffffffffffffffffffffffffffffffffffff16815260200190815260200160002060009054906101000a900460ff16151581526020018260100160003373ffffffffffffffffffffffffffffffffffffffff1673ffffffffffffffffffffffffffffffffffffffff16815260200190815260200160002060009054906101000a900460ff1615158152508385815181106116f757fe5b6020026020010181905250600184019350505b808060010191505061142b565b50809250505090565b60008084815260200190815260200160002060020154804210611778576040517f08c379a000000000000000000000000000000000000000000000000000000000815260040161176f9061347c565b60405180910390fd5b8360008082815260200190815260200160002060010160009054906101000a900473ffffffffffffffffffffffffffffffffffffffff1673ffffffffffffffffffffffffffffffffffffffff163373ffffffffffffffffffffffffffffffffffffffff16141561181d576040517f08c379a0000000000000000000000000000000000000000000000000000000008152600401611814906134fc565b60405180910390fd5b84600080828152602001908152602001600020600f0160003373ffffffffffffffffffffffffffffffffffffffff1673ffffffffffffffffffffffffffffffffffffffff16815260200190815260200160002060009054906101000a900460ff16156118be576040517f08c379a00000000000000000000000000000000000000000000000000000000081526004016118b59061351c565b60405180910390fd5b856001548110611903576040517f08c379a00000000000000000000000000000000000000000000000000000000081526004016118fa9061343c565b60405180910390fd5b604051806040016040528089815260200134815250600080898152602001908152602001600020600d0160003373ffffffffffffffffffffffffffffffffffffffff1673ffffffffffffffffffffffffffffffffffffffff16815260200190815260200160002060008201518160000155602082015181600101559050506001600080898152602001908152602001600020600f0160003373ffffffffffffffffffffffffffffffffffffffff1673ffffffffffffffffffffffffffffffffffffffff16815260200190815260200160002060006101000a81548160ff02191690831515021790555085856000808a815260200190815260200160002060110160003373ffffffffffffffffffffffffffffffffffffffff1673ffffffffffffffffffffffffffffffffffffffff1681526020019081526020016000209190611a4d92919061268f565b507f4b6c7d33d8244d6b35f1a8d35f6d19860fea50d46740345c395123753dd782fa33604051611a7d919061337d565b60405180910390a15050505050505050565b600060015490506001806000828254019250508190555060016002600082825401925050819055506000834201905060008382019050604051806101c001604052808481526020013373ffffffffffffffffffffffffffffffffffffffff1681526020018381526020018281526020016000151581526020018a8a8080601f016020809104026020016040519081016040528093929190818152602001838380828437600081840152601f19601f82011690508083019250505050505050815260200188888080601f016020809104026020016040519081016040528093929190818152602001838380828437600081840152601f19601f820116905080830192505050505050508152602001600015158152602001600073ffffffffffffffffffffffffffffffffffffffff168152602001600081526020016000604051908082528060200260200182016040528015611bf95781602001602082028038833980820191505090505b508152602001600073ffffffffffffffffffffffffffffffffffffffff16815260200160008152602001604051806020016040528060008152508152506000808581526020019081526020016000206000820151816000015560208201518160010160006101000a81548173ffffffffffffffffffffffffffffffffffffffff021916908373ffffffffffffffffffffffffffffffffffffffff160217905550604082015181600201556060820151816003015560808201518160040160006101000a81548160ff02191690831515021790555060a0820151816005019080519060200190611ce9929190612777565b5060c0820151816006019080519060200190611d06929190612777565b5060e08201518160070160006101000a81548160ff0219169083151502179055506101008201518160070160016101000a81548173ffffffffffffffffffffffffffffffffffffffff021916908373ffffffffffffffffffffffffffffffffffffffff1602179055506101208201518160080155610140820151816009019080519060200190611d979291906127f7565b5061016082015181600a0160006101000a81548173ffffffffffffffffffffffffffffffffffffffff021916908373ffffffffffffffffffffffffffffffffffffffff16021790555061018082015181600b01556101a082015181600c019080519060200190611e08929190612777565b509050507f58c55e05f36335d586220e73c744c2bee55b978dc632f7bae51fd53b68b967de838a8a8a8a604051611e4395949392919061366c565b60405180910390a17f407f117d881ed92fbecf3649fb9568d7191c91329e6cef0cb5fc97916ef0cead8383604051611e7c9291906136b5565b60405180910390a1505050505050505050565b806001548110611ed4576040517f08c379a0000000000000000000000000000000000000000000000000000000008152600401611ecb9061343c565b60405180910390fd5b81600080828152602001908152602001600020600a0160009054906101000a900473ffffffffffffffffffffffffffffffffffffffff1673ffffffffffffffffffffffffffffffffffffffff163373ffffffffffffffffffffffffffffffffffffffff1614611f78576040517f08c379a0000000000000000000000000000000000000000000000000000000008152600401611f6f906134bc565b60405180910390fd5b826001151560008083815260200190815260200160002060040160009054906101000a900460ff16151514611fe2576040517f08c379a0000000000000000000000000000000000000000000000000000000008152600401611fd9906133fc565b60405180910390fd5b6000806000868152602001908152602001600020600b0154905060008160030290506000806000888152602001908152602001600020600e0160008060008a8152602001908152602001600020600a0160009054906101000a900473ffffffffffffffffffffffffffffffffffffffff1673ffffffffffffffffffffffffffffffffffffffff1673ffffffffffffffffffffffffffffffffffffffff16815260200190815260200160002081905550600160008088815260200190815260200160002060070160006101000a81548160ff02191690831515021790555060008087815260200190815260200160002060010160009054906101000a900473ffffffffffffffffffffffffffffffffffffffff1673ffffffffffffffffffffffffffffffffffffffff166108fc829081150290604051600060405180830381858888f1935050505015801561213a573d6000803e3d6000fd5b50600080878152602001908152602001600020600a0160009054906101000a900473ffffffffffffffffffffffffffffffffffffffff1673ffffffffffffffffffffffffffffffffffffffff166108fc839081150290604051600060405180830381858888f193505050501580156121b6573d6000803e3d6000fd5b507f6cbc019d5c94717baad0acdfa06c66c2a314a9f71c5486a1034adb0f07a57e65866040516121e6919061353c565b60405180910390a1505050505050565b816001151560008083815260200190815260200160002060040160009054906101000a900460ff16151514612260576040517f08c379a0000000000000000000000000000000000000000000000000000000008152600401612257906133fc565b60405180910390fd5b6000806000858152602001908152602001600020600e0160008473ffffffffffffffffffffffffffffffffffffffff1673ffffffffffffffffffffffffffffffffffffffff1681526020019081526020016000205411156123f4576000806000858152602001908152602001600020600e0160008473ffffffffffffffffffffffffffffffffffffffff1673ffffffffffffffffffffffffffffffffffffffff1681526020019081526020016000205490506000806000868152602001908152602001600020600e0160008573ffffffffffffffffffffffffffffffffffffffff1673ffffffffffffffffffffffffffffffffffffffff1681526020019081526020016000208190555060008390508073ffffffffffffffffffffffffffffffffffffffff166108fc839081150290604051600060405180830381858888f193505050501580156123b5573d6000803e3d6000fd5b507fa01ed4ff1bfc084518bd795b4114da41c800c9ae1fc5e594cb505cb4c0c3fae18585846040516123e993929190613603565b60405180910390a150505b505050565b600080600085815260200190815260200160002060080154821161242057600090506125e5565b600073ffffffffffffffffffffffffffffffffffffffff1660008086815260200190815260200160002060070160019054906101000a900473ffffffffffffffffffffffffffffffffffffffff1673ffffffffffffffffffffffffffffffffffffffff16146125375760008085815260200190815260200160002060080154600202600080868152602001908152602001600020600e01600080600088815260200190815260200160002060070160019054906101000a900473ffffffffffffffffffffffffffffffffffffffff1673ffffffffffffffffffffffffffffffffffffffff1673ffffffffffffffffffffffffffffffffffffffff168152602001908152602001600020600082825401925050819055505b81600080868152602001908152602001600020600801819055508260008086815260200190815260200160002060070160016101000a81548173ffffffffffffffffffffffffffffffffffffffff021916908373ffffffffffffffffffffffffffffffffffffffff1602179055507ff13cb67d4c8841d2c893b242b7d61382d8e3bb53c5c58a8584106e74e8c4721b8484846040516125d893929190613603565b60405180910390a1600190505b9392505050565b604051806101c0016040528060008152602001600073ffffffffffffffffffffffffffffffffffffffff168152602001600073ffffffffffffffffffffffffffffffffffffffff168152602001600081526020016000815260200160001515815260200160001515815260200160608152602001606081526020016000151581526020016000151581526020016000815260200160608152602001606081525090565b828054600181600116156101000203166002900490600052602060002090601f016020900481019282601f106126d057803560ff19168380011785556126fe565b828001600101855582156126fe579182015b828111156126fd5782358255916020019190600101906126e2565b5b50905061270b9190612881565b5090565b60405180610120016040528060008152602001600073ffffffffffffffffffffffffffffffffffffffff168152602001600081526020016000815260200160001515815260200160608152602001606081526020016000151581526020016000151581525090565b828054600181600116156101000203166002900490600052602060002090601f016020900481019282601f106127b857805160ff19168380011785556127e6565b828001600101855582156127e6579182015b828111156127e55782518255916020019190600101906127ca565b5b5090506127f39190612881565b5090565b828054828255906000526020600020908101928215612870579160200282015b8281111561286f5782518260006101000a81548173ffffffffffffffffffffffffffffffffffffffff021916908373ffffffffffffffffffffffffffffffffffffffff16021790555091602001919060010190612817565b5b50905061287d91906128a6565b5090565b6128a391905b8082111561289f576000816000905550600101612887565b5090565b90565b6128e691905b808211156128e257600081816101000a81549073ffffffffffffffffffffffffffffffffffffffff0219169055506001016128ac565b5090565b90565b6000813590506128f881613891565b92915050565b60008135905061290d816138a8565b92915050565b60008083601f84011261292557600080fd5b8235905067ffffffffffffffff81111561293e57600080fd5b60208301915083600182028301111561295657600080fd5b9250929050565b60008135905061296c816138bf565b92915050565b60006020828403121561298457600080fd5b6000612992848285016128e9565b91505092915050565b600080600080606085870312156129b157600080fd5b60006129bf878288016128fe565b94505060206129d08782880161295d565b935050604085013567ffffffffffffffff8111156129ed57600080fd5b6129f987828801612913565b925092505092959194509250565b60008060008060008060808789031215612a2057600080fd5b600087013567ffffffffffffffff811115612a3a57600080fd5b612a4689828a01612913565b9650965050602087013567ffffffffffffffff811115612a6557600080fd5b612a7189828a01612913565b94509450506040612a8489828a0161295d565b9250506060612a9589828a0161295d565b9150509295509295509295565b600060208284031215612ab457600080fd5b6000612ac28482850161295d565b91505092915050565b600080600060408486031215612ae057600080fd5b6000612aee8682870161295d565b935050602084013567ffffffffffffffff811115612b0b57600080fd5b612b1786828701612913565b92509250509250925092565b60008060008060608587031215612b3957600080fd5b6000612b478782880161295d565b945050602085013567ffffffffffffffff811115612b6457600080fd5b612b7087828801612913565b93509350506040612b838782880161295d565b91505092959194509250565b6000612b9b8383613150565b905092915050565b6000612baf838361321c565b905092915050565b612bc0816137f6565b82525050565b612bcf816137a4565b82525050565b6000612be082613713565b612bea818561374e565b935083602082028501612bfc856136de565b8060005b85811015612c385784840389528151612c198582612b8f565b9450612c2483613734565b925060208a01995050600181019050612c00565b50829750879550505050505092915050565b6000612c558261371e565b612c5f818561375f565b935083602082028501612c71856136ee565b8060005b85811015612cad5784840389528151612c8e8582612ba3565b9450612c9983613741565b925060208a01995050600181019050612c75565b50829750879550505050505092915050565b612cc8816137b6565b82525050565b612cd781613808565b82525050565b6000612ce98385613781565b9350612cf683858461383e565b612cff83613880565b840190509392505050565b6000612d1582613729565b612d1f8185613770565b9350612d2f81856020860161384d565b612d3881613880565b840191505092915050565b600081546001811660008114612d605760018114612d8657612dca565b607f6002830416612d718187613781565b955060ff198316865260208601935050612dca565b60028204612d948187613781565b9550612d9f856136fe565b60005b82811015612dc157815481890152600182019150602081019050612da2565b80880195505050505b505092915050565b6000612ddf602c83613781565b91507f596f752068617665206e6f74207061696420726967687420746865207365637560008301527f72697479206465706f73697400000000000000000000000000000000000000006020830152604082019050919050565b6000612e45602183613781565b91507f43616e742041736b20726566756e642c61756374696f6e206e6f7420656e646560008301527f64000000000000000000000000000000000000000000000000000000000000006020830152604082019050919050565b6000612eab601583613781565b91507f41756374696f6e20616c726561647920656e64656400000000000000000000006000830152602082019050919050565b6000612eeb602183613781565b91507f41756374696f6e2049642070726f766964656420646f65736e2774206578697360008301527f74000000000000000000000000000000000000000000000000000000000000006020830152604082019050919050565b6000612f51602483613781565b91507f4f6e6c792042656e65666963696172792063616e20656e64207468652061756360008301527f74696f6e000000000000000000000000000000000000000000000000000000006020830152604082019050919050565b6000612fb7600a83613781565b91507f41667465722074696d65000000000000000000000000000000000000000000006000830152602082019050919050565b6000612ff7603083613781565b91507f4469646e277420706c6163652061206265742c6e6f20706f696e7420696e207260008301527f657665616c696e672074686520626964000000000000000000000000000000006020830152604082019050919050565b600061305d602083613781565b91507f4f6e6c792057696e6e65722063616e20636f6e6669726d2070757263686173656000830152602082019050919050565b600061309d600b83613781565b91507f6265666f72652074696d650000000000000000000000000000000000000000006000830152602082019050919050565b60006130dd601683613781565b91507f42656e65666963696172792063616e6e6f7420626964000000000000000000006000830152602082019050919050565b600061311d601f83613781565b91507f42696464657220416c726561647920706c6163656420746865697220626964006000830152602082019050919050565b600061012083016000830151613169600086018261335f565b50602083015161317c6020860182612bc6565b50604083015161318f604086018261335f565b5060608301516131a2606086018261335f565b5060808301516131b56080860182612cbf565b5060a083015184820360a08601526131cd8282612d0a565b91505060c083015184820360c08601526131e78282612d0a565b91505060e08301516131fc60e0860182612cbf565b50610100830151613211610100860182612cbf565b508091505092915050565b60006101c083016000830151613235600086018261335f565b5060208301516132486020860182612bc6565b50604083015161325b6040860182612bc6565b50606083015161326e606086018261335f565b506080830151613281608086018261335f565b5060a083015161329460a0860182612cbf565b5060c08301516132a760c0860182612cbf565b5060e083015184820360e08601526132bf8282612d0a565b9150506101008301518482036101008601526132db8282612d0a565b9150506101208301516132f2610120860182612cbf565b50610140830151613307610140860182612cbf565b5061016083015161331c61016086018261335f565b506101808301518482036101808601526133368282612d0a565b9150506101a08301518482036101a08601526133528282612d0a565b9150508091505092915050565b613368816137ec565b82525050565b613377816137ec565b82525050565b60006020820190506133926000830184612bb7565b92915050565b600060208201905081810360008301526133b28184612bd5565b905092915050565b600060208201905081810360008301526133d48184612c4a565b905092915050565b600060208201905081810360008301526133f581612dd2565b9050919050565b6000602082019050818103600083015261341581612e38565b9050919050565b6000602082019050818103600083015261343581612e9e565b9050919050565b6000602082019050818103600083015261345581612ede565b9050919050565b6000602082019050818103600083015261347581612f44565b9050919050565b6000602082019050818103600083015261349581612faa565b9050919050565b600060208201905081810360008301526134b581612fea565b9050919050565b600060208201905081810360008301526134d581613050565b9050919050565b600060208201905081810360008301526134f581613090565b9050919050565b60006020820190508181036000830152613515816130d0565b9050919050565b6000602082019050818103600083015261353581613110565b9050919050565b6000602082019050613551600083018461336e565b92915050565b600060408201905061356c600083018561336e565b6135796020830184612bb7565b9392505050565b6000606082019050613595600083018661336e565b6135a26020830185612bb7565b6135af6040830184612cce565b949350505050565b60006080820190506135cc600083018761336e565b6135d96020830186612bb7565b81810360408301526135eb8185612d43565b90506135fa606083018461336e565b95945050505050565b6000606082019050613618600083018661336e565b6136256020830185612bb7565b613632604083018461336e565b949350505050565b600060408201905061364f600083018661336e565b8181036020830152613662818486612cdd565b9050949350505050565b6000606082019050613681600083018861336e565b8181036020830152613694818688612cdd565b905081810360408301526136a9818486612cdd565b90509695505050505050565b60006040820190506136ca600083018561336e565b6136d7602083018461336e565b9392505050565b6000819050602082019050919050565b6000819050602082019050919050565b60008190508160005260206000209050919050565b600081519050919050565b600081519050919050565b600081519050919050565b6000602082019050919050565b6000602082019050919050565b600082825260208201905092915050565b600082825260208201905092915050565b600082825260208201905092915050565b600082825260208201905092915050565b600061379d826137cc565b9050919050565b60006137af826137cc565b9050919050565b60008115159050919050565b6000819050919050565b600073ffffffffffffffffffffffffffffffffffffffff82169050919050565b6000819050919050565b60006138018261381a565b9050919050565b6000613813826137ec565b9050919050565b60006138258261382c565b9050919050565b6000613837826137cc565b9050919050565b82818337600083830152505050565b60005b8381101561386b578082015181840152602081019050613850565b8381111561387a576000848401525b50505050565b6000601f19601f8301169050919050565b61389a81613792565b81146138a557600080fd5b50565b6138b1816137c2565b81146138bc57600080fd5b50565b6138c8816137ec565b81146138d357600080fd5b5056fea365627a7a72315820f160ee3f0689425dcc18745997cb3fc01d5459421d798d24cedb970e0ec15b866c6578706572696d656e74616cf564736f6c63430005100040",
  "source": "/// SPDX-License-Identifier: MIT\npragma solidity >=0.4.22 <0.9.0;\npragma experimental ABIEncoderV2;\n\ncontract BlindAuction {\n\n    struct Bid {\n        bytes32 bidHash;\n        uint256 deposit;\n    }\n\n    struct auctions {\n        uint256 auction_id;\n        address payable beneficiary;\n        uint256 biddingEnd;\n        uint256 revealEnd;\n        bool ended;\n        string item_name;\n        string item_description;\n        bool sold;\n        address payable highestBidder;\n        uint256 highestBid;\n        address payable[] revealedBidders;\n        address payable winner;\n        uint256 winningBid;\n        string H;\n        mapping(address => Bid) bids;\n        // Allowed withdrawals of previous bids\n        mapping(address => uint256) pendingReturns;\n        mapping(address => bool) bidded;\n        mapping(address => bool) revealed;\n        mapping(address => string) pubkey;\n    }\n\n    struct auction_active_listings {\n        uint256 auction_id;\n        address payable beneficiary;\n        uint256 biddingEnd;\n        uint256 revealEnd;\n        bool ended;\n        string item_name;\n        string item_description;\n        bool bidplaced;\n        bool revealed;\n    }\n    struct auction_all_listings {\n        uint256 auction_id;\n        address payable beneficiary;\n        address payable winner;\n        uint256 biddingEnd;\n        uint256 revealEnd;\n        bool ended;\n        bool sold;\n        string item_name;\n        string item_description;\n        bool bidplaced;\n        bool revealed;\n        uint256 finalBid;\n        string pubkey;\n        string H;\n    }\n    event AuctionStarted(\n        uint256 Auction_id,\n        string item_name,\n        string item_description\n    );\n\n    event AuctionEnded(\n        uint256 Auction_id,\n        address highestBidder,\n        uint256 highestBid\n    );\n\n    event ItemUnsold(uint256 auction_id);\n\n    event BiddingStarted(uint256 Auction_id, uint256 bidding_end);\n\n    event BiddingPeriodEnded(uint256 Auction_id);\n\n    event BidMade(address bidder);\n\n    event RevealPeriodStarted(uint256 Auction_id, uint256 reveal_end);\n\n    event RevealPeriodEnded(uint256 Auction_id);\n\n    event WinnerChosen(\n        uint256 Auction_id,\n        address winner,\n        string pubkey,\n        uint256 winningBid\n    );\n\n    event BidRevealed(uint256 Auction_id, address bidder);\n\n    event BidRevealFailed(uint256 Auction_id, address bidder);\n\n    event BidderRefunded(uint256 auction_id, address bidder, uint256 bid_value);\n\n    event BalanceRefunded(uint256 auction_id, address bidder, uint256 balance);\n\n    event DepositNotEnough(uint256 auction_id, address bidder);\n\n    event NewHighestBid(uint256 auction_id, address bidder, uint256 bid_value);\n\n    event encryptedKey(uint256 auction_id, string H);\n\n    event deliveryComplete(uint256 auction_id);\n\n    mapping(uint256 => auctions) private Auctions;\n\n    // variables for managing auctions\n    uint256 current_auction_id = 0;\n    uint256 activeauctions = 0;\n\n    modifier condition(bool _condition) {\n        require(_condition);\n        _;\n    }\n\n\n    modifier onlyBefore(uint256 _time) {\n        require(block.timestamp < _time, \"After time\");\n        _;\n    }\n    modifier onlyAfter(uint256 _time) {\n        require(block.timestamp > _time, \"before time\");\n        _;\n    }\n\n    modifier validBidder(uint256 auction_id) {\n        require(\n            msg.sender != Auctions[auction_id].beneficiary,\n            \"Beneficiary cannot bid\"\n        );\n        _;\n    }\n    modifier newBidder(uint256 auction_id) {\n        require(\n            !Auctions[auction_id].bidded[msg.sender],\n            \"Bidder Already placed their bid\"\n        );\n        _;\n    }\n\n    modifier alreadyBidder(uint256 auction_id) {\n        require(\n            Auctions[auction_id].bidded[msg.sender] == true,\n            \"Didn't place a bet,no point in revealing the bid\"\n        );\n        _;\n    }\n\n    modifier onlyBeneficiary(uint256 auction_id) {\n        require(\n            Auctions[auction_id].beneficiary == msg.sender,\n            \"Only Beneficiary can end the auction\"\n        );\n        _;\n    }\n    modifier auctionActive(uint256 auction_id) {\n        require(Auctions[auction_id].ended == false, \"Auction already ended\");\n        _;\n    }\n    modifier auctionEnded(uint256 auction_id) {\n        require(\n            Auctions[auction_id].ended == true,\n            \"Cant Ask refund,auction not ended\"\n        );\n        _;\n    }\n    modifier validAuctionId(uint256 auction_id) {\n        require(\n            auction_id < current_auction_id,\n            \"Auction Id provided doesn't exist\"\n        );\n        _;\n    }\n    modifier onlyWinner(uint256 auction_id) {\n        require(\n            msg.sender == Auctions[auction_id].winner,\n            \"Only Winner can confirm purchase\"\n        );\n        _;\n    }\n\n    function getAccountBalance(address account)\n        public\n        view\n        returns (uint256 accountBalance)\n    {\n        accountBalance = account.balance;\n    }\n    function auctionItem(\n        string calldata item_name,\n        string calldata item_description,\n        uint256 bidding_time,\n        uint256 reveal_time\n    ) external payable {\n        uint256 auction_id = current_auction_id;\n        current_auction_id += 1;\n        activeauctions += 1;\n        uint256 bidding_end = block.timestamp + bidding_time;\n        uint256 reveal_end = bidding_end + reveal_time;\n\n        Auctions[auction_id] = auctions(\n            auction_id,\n            msg.sender,\n            bidding_end,\n            reveal_end,\n            false,\n            item_name,\n            item_description,\n            false,\n            address(0),\n            0,\n            new address payable[](0),\n            address(0),\n            0,\n            \"\"\n        );\n        emit AuctionStarted(auction_id, item_name, item_description);\n        emit BiddingStarted(auction_id, bidding_end);\n    }\n\n    function getactiveauctions()\n        external\n        view\n        returns (auction_active_listings[] memory)\n    {\n        uint256 currentIndex = 0;\n        auction_active_listings[]\n            memory active_auctions = new auction_active_listings[](\n                activeauctions\n            );\n        for (uint256 i = 0; i < current_auction_id; i++) {\n            if (Auctions[i].ended == false) {\n                auctions storage currentauction = Auctions[i];\n                active_auctions[currentIndex] = auction_active_listings(\n                    currentauction.auction_id,\n                    currentauction.beneficiary,\n                    currentauction.biddingEnd,\n                    currentauction.revealEnd,\n                    currentauction.ended,\n                    currentauction.item_name,\n                    currentauction.item_description,\n                    currentauction.bidded[msg.sender],\n                    currentauction.revealed[msg.sender]\n                );\n                currentIndex += 1;\n            }\n        }\n        return active_auctions;\n    }\n\n    function getallauctions()\n        external\n        view\n        returns (auction_all_listings[] memory)\n    {\n        auction_all_listings[] memory all_auctions = new auction_all_listings[](\n            current_auction_id\n        );\n        for (uint256 i = 0; i < current_auction_id; i++) {\n            auctions storage currentauction = Auctions[i];\n            string memory pubkey = \"\";\n            if (currentauction.highestBidder != address(0))\n                pubkey = currentauction.pubkey[currentauction.highestBidder];\n            all_auctions[i] = auction_all_listings(\n                currentauction.auction_id,\n                currentauction.beneficiary,\n                currentauction.highestBidder,\n                currentauction.biddingEnd,\n                currentauction.revealEnd,\n                currentauction.ended,\n                currentauction.sold,\n                currentauction.item_name,\n                currentauction.item_description,\n                currentauction.bidded[msg.sender],\n                currentauction.revealed[msg.sender],\n                currentauction.highestBid,\n                pubkey,\n                currentauction.H\n            );\n        }\n        return all_auctions;\n    }\n\n    function bid(\n        bytes32 blindedBid,\n        uint256 auction_id,\n        string calldata pubkey\n    )\n        external\n        payable\n        onlyBefore(Auctions[auction_id].biddingEnd)\n        validBidder(auction_id)\n        newBidder(auction_id)\n        validAuctionId(auction_id)\n    {\n        Auctions[auction_id].bids[msg.sender] = Bid(blindedBid, msg.value);\n        Auctions[auction_id].bidded[msg.sender] = true;\n        Auctions[auction_id].pubkey[msg.sender] = pubkey;\n        emit BidMade(msg.sender);\n    }\n\n    function reveal(\n        uint256 value,\n        //bool fake,\n        string calldata secret,\n        uint256 auction_id\n    )\n        external\n        payable\n        onlyAfter(Auctions[auction_id].biddingEnd)\n        onlyBefore(Auctions[auction_id].revealEnd)\n        alreadyBidder(auction_id)\n        validAuctionId(auction_id)\n    {\n        uint256 refund = 0;\n        bool success = false;\n        //get the bid placed by the user\n        Bid storage bidToCheck = Auctions[auction_id].bids[msg.sender];\n\n        // improper revealing\n        if (bidToCheck.bidHash != keccak256(abi.encode(value, secret))) {\n            // Bid was not actually revealed.\n            // Do not refund deposit.\n            emit BidRevealFailed(auction_id, msg.sender);\n        } else {\n            // Make it impossible for the sender to re-claim\n            bidToCheck.bidHash = bytes32(0);\n\n            Auctions[auction_id].revealedBidders.push(msg.sender);\n            Auctions[auction_id].revealed[msg.sender] = true;\n            refund += bidToCheck.deposit;\n            if (bidToCheck.deposit >= 2 * value) {\n                if (placeBid(auction_id, msg.sender, value))\n                    refund -= 2 * value;\n                emit BidRevealed(auction_id, msg.sender);\n            } else emit DepositNotEnough(auction_id, msg.sender);\n            // the same deposit.\n            emit BalanceRefunded(auction_id, msg.sender, refund);\n            msg.sender.transfer(refund);\n        }\n    }\n\n    function placeBid(\n        uint256 auction_id,\n        address payable bidder,\n        uint256 value\n    ) internal returns (bool success) {\n        if (value <= Auctions[auction_id].highestBid) {\n            return false;\n        }\n        if (Auctions[auction_id].highestBidder != address(0)) {\n            // Refund the previously highest bidder.\n            Auctions[auction_id].pendingReturns[\n                Auctions[auction_id].highestBidder\n            ] += 2 * Auctions[auction_id].highestBid;\n        }\n        Auctions[auction_id].highestBid = value;\n        Auctions[auction_id].highestBidder = bidder;\n        emit NewHighestBid(auction_id, bidder, value);\n        return true;\n    }\n\n    function withdraw(uint256 auction_id, address payable bidder)\n        internal\n        auctionEnded(auction_id)\n    {\n        //emit BidderRefunded(auction_id,msg.sender, Auctions[auction_id].pendingReturns[msg.sender]);\n        if (Auctions[auction_id].pendingReturns[bidder] > 0) {\n            uint256 value = Auctions[auction_id].pendingReturns[bidder];\n            Auctions[auction_id].pendingReturns[bidder] = 0;\n            address payable payable_sender = bidder;\n            payable_sender.transfer(value);\n            emit BidderRefunded(auction_id, bidder, value);\n        }\n    }\n\n    function auctionEnd(uint256 auction_id)\n        external\n        onlyAfter(Auctions[auction_id].revealEnd)\n        onlyBeneficiary(auction_id)\n        auctionActive(auction_id)\n    {\n        // if (Auctions[auction_id].ended) revert AuctionEndAlreadyCalled();\n        if (\n            Auctions[auction_id].highestBid == 0 &&\n            Auctions[auction_id].highestBidder == address(0)\n        ) {\n            emit ItemUnsold(auction_id);\n            emit AuctionEnded(auction_id, address(0), 0);\n            Auctions[auction_id].ended = true;\n            activeauctions -= 1;\n        } else {\n            emit AuctionEnded(\n                auction_id,\n                Auctions[auction_id].highestBidder,\n                Auctions[auction_id].highestBid\n            );\n            Auctions[auction_id].ended = true;\n            activeauctions -= 1;\n            Auctions[auction_id].winner = Auctions[auction_id].highestBidder;\n            Auctions[auction_id].winningBid = Auctions[auction_id].highestBid;\n            for (\n                uint256 i = 0;\n                i < Auctions[auction_id].revealedBidders.length;\n                ++i\n            ) {\n                withdraw(auction_id, Auctions[auction_id].revealedBidders[i]);\n            }\n            //Auctions[auction_id].beneficiary.transfer(\n            //Auctions[auction_id].highestBid\n            // );\n            emit WinnerChosen(\n                auction_id,\n                Auctions[auction_id].winner,\n                Auctions[auction_id].pubkey[Auctions[auction_id].winner],\n                Auctions[auction_id].winningBid\n            );\n        }\n    }\n\n    function sellItem(uint256 auction_id, string calldata H)\n        external\n        payable\n        validAuctionId(auction_id)\n        auctionEnded(auction_id)\n        onlyBeneficiary(auction_id)\n    {\n        /// Check the security deposits\n        require(\n            msg.value == 2 * Auctions[auction_id].winningBid,\n            \"You have not paid right the security deposit\"\n        );\n        Auctions[auction_id].H = H;\n\n        emit encryptedKey(auction_id, H);\n        //  Auctions[auction_id].beneficiary.transfer(Auctions[auction_id].winningBid);\n    }\n\n    function confirmDelivery(uint256 auction_id)\n        external\n        payable\n        validAuctionId(auction_id)\n        onlyWinner(auction_id)\n        auctionEnded(auction_id)\n    {\n        /// Refund the seller\n        uint256 amt = Auctions[auction_id].winningBid;\n        uint256 prof = 3 * amt;\n        // emit deliveryComplete(auction_id);\n        Auctions[auction_id].pendingReturns[Auctions[auction_id].winner] = 0;\n        Auctions[auction_id].sold = true;\n\n        Auctions[auction_id].beneficiary.transfer(prof);\n        Auctions[auction_id].winner.transfer(amt);\n\n        emit deliveryComplete(auction_id);\n    }\n}\n",
  "sourcePath": "/Users/supreeth/Downloads/blockchain-final/Auction-blockchain/contracts/BlindAuction.sol",
  "compiler": {
    "name": "solc",
    "version": "0.5.16+commit.9c3226ce.Emscripten.clang"
  },
  "schemaVersion": "3.4.13",
  "updatedAt": "2023-05-08T04:59:55.994Z",
  "networkType": "ethereum",
  "devdoc": {
    "methods": {}
  },
  "userdoc": {
    "methods": {}
  }
}